{
  "contractName": "BirthCertificate",
  "abi": [
    {
      "inputs": [],
      "stateMutability": "nonpayable",
      "type": "constructor"
    },
    {
      "inputs": [],
      "name": "owner",
      "outputs": [
        {
          "internalType": "address",
          "name": "",
          "type": "address"
        }
      ],
      "stateMutability": "view",
      "type": "function"
    },
    {
      "inputs": [
        {
          "internalType": "string",
          "name": "name",
          "type": "string"
        },
        {
          "internalType": "string",
          "name": "dateOfBirth",
          "type": "string"
        },
        {
          "internalType": "string",
          "name": "placeOfBirth",
          "type": "string"
        },
        {
          "internalType": "string",
          "name": "parents",
          "type": "string"
        }
      ],
      "name": "createCertificate",
      "outputs": [
        {
          "internalType": "uint256",
          "name": "",
          "type": "uint256"
        }
      ],
      "stateMutability": "nonpayable",
      "type": "function"
    },
    {
      "inputs": [
        {
          "internalType": "uint256",
          "name": "id",
          "type": "uint256"
        }
      ],
      "name": "getCertificate",
      "outputs": [
        {
          "internalType": "string",
          "name": "",
          "type": "string"
        },
        {
          "internalType": "string",
          "name": "",
          "type": "string"
        },
        {
          "internalType": "string",
          "name": "",
          "type": "string"
        },
        {
          "internalType": "string",
          "name": "",
          "type": "string"
        }
      ],
      "stateMutability": "view",
      "type": "function"
    }
  ],
  "bytecode": "0x60806040526001805534801561001457600080fd5b5033600260006101000a81548173ffffffffffffffffffffffffffffffffffffffff021916908373ffffffffffffffffffffffffffffffffffffffff160217905550610b03806100656000396000f3fe608060405234801561001057600080fd5b50600436106100415760003560e01c80632a2d8fa71461004657806351640fee146100765780638da5cb5b146100a9575b600080fd5b610060600480360381019061005b919061060e565b6100c7565b60405161006d9190610853565b60405180910390f35b610090600480360381019061008b91906106d1565b610235565b6040516100a094939291906107d2565b60405180910390f35b6100b16104c8565b6040516100be91906107b7565b60405180910390f35b6000600260009054906101000a900473ffffffffffffffffffffffffffffffffffffffff1673ffffffffffffffffffffffffffffffffffffffff163373ffffffffffffffffffffffffffffffffffffffff1614610159576040517f08c379a000000000000000000000000000000000000000000000000000000000815260040161015090610833565b60405180910390fd5b604051806080016040528086815260200185815260200184815260200183815250600080600154815260200190815260200160002060008201518160000190805190602001906101aa9291906104ee565b5060208201518160010190805190602001906101c79291906104ee565b5060408201518160020190805190602001906101e49291906104ee565b5060608201518160030190805190602001906102019291906104ee565b5090505060016000815480929190610218906109cf565b91905055506001805461022b91906108eb565b9050949350505050565b606080606080600080600087815260200190815260200160002060405180608001604052908160008201805461026a9061099d565b80601f01602080910402602001604051908101604052809291908181526020018280546102969061099d565b80156102e35780601f106102b8576101008083540402835291602001916102e3565b820191906000526020600020905b8154815290600101906020018083116102c657829003601f168201915b505050505081526020016001820180546102fc9061099d565b80601f01602080910402602001604051908101604052809291908181526020018280546103289061099d565b80156103755780601f1061034a57610100808354040283529160200191610375565b820191906000526020600020905b81548152906001019060200180831161035857829003601f168201915b5050505050815260200160028201805461038e9061099d565b80601f01602080910402602001604051908101604052809291908181526020018280546103ba9061099d565b80156104075780601f106103dc57610100808354040283529160200191610407565b820191906000526020600020905b8154815290600101906020018083116103ea57829003601f168201915b505050505081526020016003820180546104209061099d565b80601f016020809104026020016040519081016040528092919081815260200182805461044c9061099d565b80156104995780601f1061046e57610100808354040283529160200191610499565b820191906000526020600020905b81548152906001019060200180831161047c57829003601f168201915b505050505081525050905080600001518160200151826040015183606001519450945094509450509193509193565b600260009054906101000a900473ffffffffffffffffffffffffffffffffffffffff1681565b8280546104fa9061099d565b90600052602060002090601f01602090048101928261051c5760008555610563565b82601f1061053557805160ff1916838001178555610563565b82800160010185558215610563579182015b82811115610562578251825591602001919060010190610547565b5b5090506105709190610574565b5090565b5b8082111561058d576000816000905550600101610575565b5090565b60006105a461059f8461089f565b61086e565b9050828152602081018484840111156105bc57600080fd5b6105c784828561095b565b509392505050565b600082601f8301126105e057600080fd5b81356105f0848260208601610591565b91505092915050565b60008135905061060881610ab6565b92915050565b6000806000806080858703121561062457600080fd5b600085013567ffffffffffffffff81111561063e57600080fd5b61064a878288016105cf565b945050602085013567ffffffffffffffff81111561066757600080fd5b610673878288016105cf565b935050604085013567ffffffffffffffff81111561069057600080fd5b61069c878288016105cf565b925050606085013567ffffffffffffffff8111156106b957600080fd5b6106c5878288016105cf565b91505092959194509250565b6000602082840312156106e357600080fd5b60006106f1848285016105f9565b91505092915050565b6107038161091f565b82525050565b6000610714826108cf565b61071e81856108da565b935061072e81856020860161096a565b61073781610aa5565b840191505092915050565b600061074f6021836108da565b91507f4f6e6c79206f776e65722063616e2063616c6c20746869732066756e6374696f60008301527f6e000000000000000000000000000000000000000000000000000000000000006020830152604082019050919050565b6107b181610951565b82525050565b60006020820190506107cc60008301846106fa565b92915050565b600060808201905081810360008301526107ec8187610709565b905081810360208301526108008186610709565b905081810360408301526108148185610709565b905081810360608301526108288184610709565b905095945050505050565b6000602082019050818103600083015261084c81610742565b9050919050565b600060208201905061086860008301846107a8565b92915050565b6000604051905081810181811067ffffffffffffffff8211171561089557610894610a76565b5b8060405250919050565b600067ffffffffffffffff8211156108ba576108b9610a76565b5b601f19601f8301169050602081019050919050565b600081519050919050565b600082825260208201905092915050565b60006108f682610951565b915061090183610951565b92508282101561091457610913610a18565b5b828203905092915050565b600061092a82610931565b9050919050565b600073ffffffffffffffffffffffffffffffffffffffff82169050919050565b6000819050919050565b82818337600083830152505050565b60005b8381101561098857808201518184015260208101905061096d565b83811115610997576000848401525b50505050565b600060028204905060018216806109b557607f821691505b602082108114156109c9576109c8610a47565b5b50919050565b60006109da82610951565b91507fffffffffffffffffffffffffffffffffffffffffffffffffffffffffffffffff821415610a0d57610a0c610a18565b5b600182019050919050565b7f4e487b7100000000000000000000000000000000000000000000000000000000600052601160045260246000fd5b7f4e487b7100000000000000000000000000000000000000000000000000000000600052602260045260246000fd5b7f4e487b7100000000000000000000000000000000000000000000000000000000600052604160045260246000fd5b6000601f19601f8301169050919050565b610abf81610951565b8114610aca57600080fd5b5056fea26469706673582212202d975f2a3010a1c040610725e95721239494b89b9b4b7e62335576a6f89a3b7164736f6c63430008000033",
  "immutableReferences": {},
  "source": "pragma solidity ^0.8.0;\n\ncontract BirthCertificate {\n    struct Certificate {\n        string name;\n        string dateOfBirth;\n        string placeOfBirth;\n        string parents;\n    }\n\n    mapping(uint256 => Certificate) private certificates;\n    uint256 private nextId = 1;\n    address public owner;\n\n    modifier onlyOwner() {\n        require(msg.sender == owner, \"Only owner can call this function\");\n        _;\n    }\n\n    constructor() {\n        owner = msg.sender;\n    }\n\n    function createCertificate(\n        string memory name,\n        string memory dateOfBirth,\n        string memory placeOfBirth,\n        string memory parents\n    ) public onlyOwner returns (uint256) {\n        certificates[nextId] = Certificate(\n            name,\n            dateOfBirth,\n            placeOfBirth,\n            parents\n        );\n        nextId++;\n        return nextId - 1;\n    }\n\n    function getCertificate(\n        uint256 id\n    )\n        public\n        view\n        returns (string memory, string memory, string memory, string memory)\n    {\n        Certificate memory cert = certificates[id];\n        return (cert.name, cert.dateOfBirth, cert.placeOfBirth, cert.parents);\n    }\n}\n",
  "sourcePath": "/home/luis/estudos/blockChain/my_dapp/contracts/SimpleStorage.sol",
  "compiler": {
    "name": "solc",
    "version": "0.8.0+commit.c7dfd78e.Emscripten.clang"
  },
  "schemaVersion": "3.4.16",
  "updatedAt": "2024-05-21T22:09:09.551Z",
  "devdoc": {
    "kind": "dev",
    "methods": {},
    "version": 1
  },
  "userdoc": {
    "kind": "user",
    "methods": {},
    "version": 1
  }
}